:020000040800F2
:100000000808002001010008213A0008A133000877
:100010001D3A00081D1400082942000800000000D5
:100020000000000000000000000000001D3C00086F
:100030004116000800000000293A0008CD3C0008E5
:100040001B0100081B0100081B010008E13A000821
:100050001B0100081B0100081B0100081B01000810
:100060001B0100081B0100081B0100081B01000800
:100070001B0100081B0100081B0100081B010008F0
:100080001B0100081B0100081B0100081B010008E0
:100090001B0100081B0100081B0100081B010008D0
:1000A0001B0100081B0100081B0100081B010008C0
:1000B0001B0100081B0100081B0100081B010008B0
:1000C0001B0100081B0100081B0100081B010008A0
:1000D0001B0100081B010008194200081B01000851
:1000E0001B0100081B0100081B010008DFF80CD0F1
:1000F00000F0A2FC004800476952000808080020F0
:100100000648804706480047FEE7FEE7FEE7FEE7B1
:10011000FEE7FEE7FEE7FEE7FEE7FEE7693D0008D3
:10012000ED000008202A04DB203A21FA02F0002129
:10013000704721FA02F3D040C2F1200291400843F7
:100140001946704740EA01039B0703D009E008C93C
:10015000121F08C0042AFAD203E011F8013B00F88C
:10016000013B521EF9D27047D2B201E000F8012BD8
:10017000491EFBD270470022F6E710B513460A4627
:1001800004461946FFF7F0FF204610BD421C10F848
:10019000011B0029FBD1801A704730B505460020AD
:1001A000034600E05B1C934205D2EC5CC85C201A5D
:1001B00001D1002CF6D130BD0FB400B58DB010A91F
:1001C00009900B9000914FF0FF300A9000200C90A6
:1001D00005480690054807906A4609A80F9900F05F
:1001E0000DFA0DB05DF814FB19060008370600087B
:1001F0002DE9FF4F1C4681B00021D4E901679146EB
:100200004FF0FF358A468846A1696D1C02988847E1
:10021000216A834688470028F6D1BBF1FF3F0CD006
:1002200026F4C066002F1ADD700615D5BBF12B0F22
:100230000AD0BBF12D0F0FD104E04FF0FF3005B015
:10024000BDE8F08F46F48066A1696D1C029888476E
:100250007F1E8346002F02DDBBF1300F03D0B9F1C2
:10026000000F2AD025E0A1696D1C46F400767F1EA0
:10027000029888478346002F05DDBBF1780F06D032
:10028000BBF1580F03D0B9F1000F10D011E0B9F154
:10029000000F02D0B9F1100F0BD1A1696D1C26F42B
:1002A00000767F1E029888478346102000E00820D1
:1002B00081464FEAE970009017E00A20F8E74346CC
:1002C000AAFB092803FB0980DDF800C07F1E0AFB9A
:1002D0000C0112EB0B0A41EBEB78A16946F40076B6
:1002E00005F10105029888478346002F06DD49463F
:1002F000584600F06FF95FEA000BE0D5E16902981B
:100300008847B00502D46FF0010098E7F00718D1D4
:10031000700610D57005514605D50023D1EB0301B9
:1003200063EB080200E042462068031D236000687A
:10033000C0E9001205E02068011D21600068C0E9E5
:1003400000A828467BE72DE9FF5F1D464FF0FF3BE5
:10035000D5E9014691465F464FF00008A9697F1C28
:1003600001988847296A824688470028F6D1BAF161
:10037000FF3F0CD024F4C064002E19DD600614D5B4
:10038000BAF12B0F09D0BAF12D0F0ED103E0584668
:1003900004B0BDE8F09F44F48064A9697F1C019813
:1003A0008847761E8246002E02DDBAF1300F03D058
:1003B000B9F1000F26D032E0A969761E44F400742A
:1003C0007F1C019888478246002E05DDBAF1780F20
:1003D00006D0BAF1580F03D0B9F1000F10D01EE0CB
:1003E000B9F1000F02D0B9F1100F18D1A969761E2A
:1003F00024F400747F1C019888478246102002E094
:10040000082000E00A20814609E008FB0908A969E4
:10041000761E44F400747F1C019888478246002EA3
:1004200005DD4946504600F0D5F80028EDDAE969C7
:1004300001988847A00502D46FF00100A8E7E00703
:1004400025D1600613D5600502D5C8F1000000E093
:10045000404629680A1D2A600968220501D50870EE
:1004600015E0220701D5088011E008600FE0286838
:10047000011D29600068210502D580F8008006E092
:10048000210702D5A0F8008001E0C0F800803846BE
:100490007EE730B480EA010202F0004530F000420D
:1004A00021F0004013D090B1C30DD40DC2F316015A
:1004B000C0F31600E41A41F4000140F400027D3458
:1004C000914201D3641C00E04900002C02DA30BCE8
:1004D000002070474FF400000023914201D3891A95
:1004E000034340084FEA4101F7D151B1914202D193
:1004F0004FF0004105E002D24FF0010101E06FF042
:10050000010103EBC450284430BC00F0A5B8C10F72
:1005100080EAE0700844CA079623002100F0A5B8DD
:1005200000F0004230F000400AD0C10D01F56071CA
:10053000C0F3160042EA0151C20840071143704758
:1005400000200146704730B50B46014600202022AE
:10055000012409E021FA02F59D4205D303FA02F5D0
:10056000491B04FA02F52844151EA2F10102F1DC30
:1005700030BD2DE9F05F0546002092469B46884637
:100580000646814640241BE028464146474622460F
:10059000FFF7C8FD53465A46C01A914110D3114681
:1005A0001846224600F05AFA2D1A67EB01084F460A
:1005B00022460120002100F051FA17EB00094E41BC
:1005C000201EA4F10104DFDC484631462A4643469A
:1005D000BDE8F09F3A2800D2303820F02002412AAE
:1005E00001D3A2F13700884201D34FF0FF307047AA
:1005F000026811441378016018467047D1600449BD
:1006000051610449116200211161114600F04CBA98
:10061000F10500089F0A0008426842B1016811F81C
:10062000013B23B1521EC0E9001218467047012158
:10063000C160881E704742685AB1C368016843B9F7
:1006400083688B4205D0491E521CC0E9001200206D
:1006500070474FF0FF3070470029A8BF7047401C1B
:10066000490008BF20F00100704710B4B0FA80FCC8
:1006700000FA0CF050EA010404BF10BC704749B105
:10068000CCF1200421FA04F411FA0CF118BF012175
:1006900021430843A3EB0C01CB1D4FEA00614FEA55
:1006A000102042BF002010BC704700EBC350104424
:1006B0000029A4BF10BC7047401C490008BF20F0AF
:1006C000010010BC70472DE9FE4F804681EA03000F
:1006D000C00F0C46009021F0004123F00045B8EB1C
:1006E0000200A94105D24046214690461C460B46D1
:1006F000024623F00040104347D0270DC7F30A00FD
:10070000C3F30A510290401A019040286BDAC3F3F8
:10071000130040F4801B0098924620B10023D2EBD6
:10072000030A63EB0B0B01985946C0F14002504697
:1007300000F094F906460D4650465946019A00F0DD
:100740009CF910EB08006141002487EA115284EA09
:10075000E7731A4340D0009A62B3019A012A4FEA24
:10076000075215DC001B61EB02014FF0004202EA68
:100770000752CDE90042001C41F5801132462B465C
:1007800000F037FB03B0BDE8F08F40462146F9E7A3
:10079000001B61EB0201001C41F5801300185B4156
:1007A0002018A2F5001747EB030140EAD570B619EF
:1007B0006D4111E06D084FEA360645EAC0754FEA13
:1007C0000752001B61EB0201001C41F58011490832
:1007D0004FEA30000019514132462B4603B0BDE8C4
:1007E000F04F00F0F7BA0098012240000023D0EB50
:1007F000020263EBE073009821464FEAE074B8EB25
:10080000000061EB0401E9E783F000435BE781F05E
:10081000004158E72DE9FE4F81EA030404F000444B
:1008200021F0004100944FF0000B23F0004350EA08
:1008300001045ED052EA03045BD0C3F30A54C1F34F
:100840000A552C44A4F2F3340194A0FB0254C1F3E2
:10085000130141F48011C3F3130343F4801301FB2C
:10086000024400FB034E840A970A44EA815447EA93
:100870008357A4FB076802958D0A05FB07854FEA9D
:10088000932C04FB0C542705029D4FEA065847EAB7
:100890001637B5EB08056EEB070C870E920E47EA8C
:1008A000811742EA8312A7FB0201B6EB0B0164EB4E
:1008B00000042B0D43EA0C335E1844EB1C50DA465F
:1008C0005146E7FB0201C5F313044FEA0B3343EA39
:1008D00014534FEA0432019C43EA0603A4F10C04CA
:1008E0000294009CCDE900B400F083FA03B0BDE8A7
:1008F000F08F00200146F9E72DE9F04D81EA03046D
:1009000004F0004B21F0004514464FF0000A23F09C
:10091000004150EA050220D054EA01021DD0C5F37F
:100920000A570246C5F31303C1F31300C1F30A5675
:1009300040F4801543F48013A7EB0608101BD6463D
:1009400008F2FD3873EB050002D308F1010801E05D
:1009500092185B41B8F1000F03DA00200146BDE8B0
:10096000F08D00204FF48011064684460EE0171BE0
:1009700073EB050705D3121B63EB050306434CEA33
:10098000010C49084FEA300092185B4150EA010718
:10099000EDD152EA030012D082EA040083EA050195
:1009A000084305D0101BAB4106D20122002306E00C
:1009B00000224FF0004302E06FF0010253101AEBE7
:1009C00006004CEB085110EB0A0041EB0B01BDE8AF
:1009D000F04D00F0FFB9C1F30A52C1F3130140F228
:1009E000FF3341F480119A4202DA00200146704739
:1009F00040F233439A42A2F2334202DC5242FFF702
:100A000091BB00F02BB8000030B5041E71F100045A
:100A100004DB4FF00044404264EB0101141E73F10B
:100A2000000405DB1C464FF00043524263EB040315
:100A3000994208BF904230BD064C074D06E0E06881
:100A400040F0010394E8070098471034AC42F6D315
:100A5000FFF750FB6054000880540008202A04DB94
:100A6000203A00FA02F1002070479140C2F12003C1
:100A700020FA03F3194390407047202A06DBCB1776
:100A8000203A41FA02F043EAE07306E041FA02F349
:100A9000D040C2F120029140084319467047C0B2CD
:100AA0004FF4F05100F0F4B92DE9F34F8BB04FF053
:100AB000000801F10C000C464FF0010B46460DF109
:100AC000080A01906269012101989047051E2DD006
:100AD000252D2CD0216A8847C0B162690121019877
:100AE0009047216A88470028F7D1411E6269019822
:100AF000904700E0761CA1690B988847216A8847D7
:100B00000028F7D1E1690B988847DBE7A1690B98CA
:100B100088470746A84201D1761CD3E7E1690B98C4
:100B200088477F1C02D1B8F1000F6FD046E1002743
:100B300062693D463946019890472A2804D1626986
:100B40000121019890470125DFF884926269012113
:100B500001989047A0F130010A290AD24F45E5DCFF
:100B600007EB870100EB4107303FDFD445F010056C
:100B7000ECE7E90601D46FF000476C280AD04C2856
:100B800014D0682815D06A280DD074281CD07A2873
:100B90001AD01DE062690121019890476C2802D0AB
:100BA00045F0040514E045F002050DE045F0200590
:100BB0000AE06269012101989047682802D045F057
:100BC000080505E045F40065626901210198904738
:100BD000C4E9015765283DD019DC58287AD00CDCCF
:100BE000452837D004DC252826D0412831D131E0F2
:100BF00046282FD047282CD12CE05B2877D06128BD
:100C000028D063287CD0642823D15AE0D0E06F2814
:100C100048D008DC66281DD067281BD0692821D061
:100C20006E2816D127E0702845D0732868D0752823
:100C300047D078280DD14DE0A1690B98884705462B
:100C400025283FF469AFE1690B9888476D1C3FF494
:100C50006AAFB3E023466A466FF001000B99AFF329
:100C600000809EE045F040006060A80723464FF0FA
:100C7000000236D43EE0E8077FF447AF2068011D4C
:100C800021600068290501D506701BE7290701D5F9
:100C9000068017E7A90703D5F117C0E9006111E73E
:100CA00006600FE745F040006060A80723464FF05C
:100CB000080216D41EE040F60E0125EA010060602D
:100CC00016E045F040006060A80723464FF00A0296
:100CD00007D40FE045F040006060A80708D5234620
:100CE00010226FF001000B99FFF782FA59E007E03C
:100CF000234610226FF001000B99FFF724FB50E010
:100D00004FF000094F464B46632802D05B2806D0BF
:100D100040E0E80601D40120A06001273AE06269C2
:100D20000121019890475E2805D14FF001096269C1
:100D3000494601989047216939B900210A4653462E
:100D400043F82120491C0829FADBB0B3216969B9AD
:100D5000C11700EBD16253110AEB830122F01F028D
:100D6000821A01200B68904003430B6062690121E5
:100D7000019890475D28E8D1B9F1000F09D0002013
:100D8000514651F82020D24341F82020401C082829
:100D9000F7DB02AB224600976FF001000B99AFF32F
:100DA000008000280CDA401C08D1BBF1000F05D0F0
:100DB0004FF0FF300DB0BDE8F08FFFE74046F9E798
:100DC000E90701D108F1010806444FF0000B79E66C
:100DD000CCCCCC0C10B5141E73F1000408DA401C06
:100DE00041F1000192185B411A4301D120F001004A
:100DF00010BD2DE9F04D92469B4611B1B1FA81F23A
:100E000002E0B0FA80F220329046FFF727FE044657
:100E10000F4640EA0A0041EA0B0153465A4608438E
:100E200013D0114653EA010019D0C8F140025046D0
:100E3000FFF778F905460E46504659464246FFF7F9
:100E40000DFE084305D0012004E020463946BDE8E8
:100E5000F08D0020054346EAE0762C4337430A989C
:100E60006305E40AA0EB08000022FD0A44EA4754A7
:100E70000A3002D500200146E9E701051019694151
:100E8000DDE9084500196941BDE8F04DA2E7000021
:100E90007F2801D9002208E0064A02EB5002C00771
:100EA000127800D1120902F00F0201209040084090
:100EB000704700002054000870B5044600252068E3
:100EC000806800F00100F0B12068806820F0010027
:100ED0002168886000F04AFF05460EE000F046FFFA
:100EE000401B022809D9A06A40F01000A062E06A05
:100EF00040F00100E062012070BD2068806800F0D1
:100F000001000028EAD10020F6E7000070B5044691
:100F10000E4615460A4850F8240008B9002070BD56
:100F2000032208A12846FFF738F908B90120F6E79F
:100F3000034850F824203146284690470120EEE728
:100F4000E85300084154000070B504460D46064AB7
:100F500092F8A11092F8A0002246FFF7D7FF204692
:100F600000F004F870BD0000300100207047000060
:100F700010B500240222032106A002F051FE28B180
:100F800041F2883003F014FC044600E000242046BF
:100F900010BD000041542B43455245473F0D0A0008
:100FA00010B500240222042106A002F039FE28B167
:100FB00041F2883003F0FCFB044600E000242046A8
:100FC00010BD000041542B4347534E3D310D0A00E4
:100FD00010B500240222052106A002F021FE28B14E
:100FE00041F2883003F0E4FB044600E00024204690
:100FF00010BD000041542B43494D490D0A0000002B
:1010000010B500240222114606A002F009FE28B104
:1010100042F2107003F0CCFB044600E000242046AE
:1010200010BD000041542B4353510D0A0000000035
:101030002DE9FE4307460C4615464FF000080026F2
:10104000B1463B4616A2012102A8CDE9004503F0B6
:10105000FDFB0646304604F085F9B0F1000902D1E7
:101060004046BDE8FE833B460DA231464846CDE9E9
:10107000004503F0EBFB01220721484602F0D0FDBA
:1010800028B141F2883003F093FB804601E04FF035
:101090000008484604F0C0F84FF000094046E0E779
:1010A00041542B4D49504C4144444F424A3D2564E4
:1010B0002C25642C25640D0A000000002DE9F04F5A
:1010C000C7B000204690002545900024502131A84B
:1010D000FFF751F867A069A36CA20121009045A811
:1010E00003F0B4FB0546284604F03CF9B0F1000BD0
:1010F00003D1469847B0BDE8F08F5EA05FA363A21E
:10110000691C0090584603F0A1FB5846FFF73EF8D3
:101110002E9000202F9040F6B83A604803C8CDE9E1
:1011200002015E49083903C95DA2CDE90001012130
:1011300045A803F08BFB0546284604F013F9B0F1EF
:10114000000801D14698D5E7544903C9CDE9020109
:101150005248083803C852A2CDE90001691C404634
:1011600003F074FB4046FFF711F82D9000203090FB
:1011700010202C9031A89DF8B0100155641C9DF8EA
:10118000C0100155641C2044BDF8BC100180A41C93
:1011900031A82044C0F800A0241D31A82044BDF887
:1011A000B8100180A41C31A9081959462E9AFEF7DF
:1011B000C9FF2E98044431A82044BDF8B410018022
:1011C000A41C31A9081941462D9AFEF7BBFF2D98A2
:1011D0000444052031A90855641C0855641C0120ED
:1011E0000855641C584604F017F84FF0000B4046B1
:1011F00004F012F8D84600260BE03746711C8EB278
:1012000031A9CA5D04A901EB470028A103F036FB10
:1012100000BFA642F1D3012004AACDE90020234655
:1012200024A20146029045A803F010FB451C284665
:1012300004F098F8B0F1000901D146985AE701206E
:1012400004AACDE9002023461AA2691C0290484650
:1012500003F0FCFA01220621484602F0E1FC08B145
:1012600001204690484603F0D7FF4FF0000946980A
:1012700040E7000035363833000000003138332EA7
:101280003233302E34302E3339000000636F6170FA
:101290003A2F2F25733A257300000000F00100203B
:1012A000256C6C753B256C6C750000002530325840
:1012B0000000000041542B4D49504C434F4E463DD9
:1012C00025642C25732C25642C25640D0A00000050
:1012D0002DE9F04F89B080460C4615461E46DDE9E3
:1012E00013ABDDF848900020089000270690434695
:1012F00016A2012107A88DE8700E03F0A7FA471C7B
:10130000384604F02FF8069018B9089809B0BDE8DF
:10131000F08F43460DA239468DE8700E069803F013
:1013200095FA01220821069802F07AFC28B141F2D0
:10133000883003F03DFA089001E0002008900698FC
:1013400003F06AFF002006900898DFE741542B4D18
:1013500049504C4E4F544946593D25642C25642C28
:1013600025642C25642C25642C222573222C2564CD
:101370000D0A00002DE9FC4106460C460027002519
:10138000A846334615A2012101A8009403F05EFA95
:10139000451C284603F0E6FFB0F1000802D13846AC
:1013A000BDE8FC8133460DA229464046009403F077
:1013B0004DFA01220921404602F032FC28B14EF6D6
:1013C000602003F0F5F9074600E00027404603F0EF
:1013D00023FF4FF000083846E2E7000041542B4D50
:1013E00049504C4F50454E3D25642C25640D0A0054
:1013F00010B500240222012106A002F011FC28B140
:1014000041F2883003F0D4F9044600E0002420467D
:1014100010BD000041540D0A0000000000BFFEE7AF
:1014200010B5002400F052F804E0601CC4B20120A2
:1014300003F0CEFE01210F4800F08AFC08B1C82C51
:10144000F3DBC82C01DB012010BD002404E0601C8C
:10145000C4B2012003F0BCFE0121064800F078FC74
:1014600008B9F02CF3DBF02C01DB0120ECE70020C5
:10147000EAE70000000C01402DE9F04100F0A2F87D
:1014800000F088F8FFF7CCFFCC2000F0A7F8BE20D2
:1014900000F0A4F800F06CF8074600F069F8044684
:1014A000072C05DDE043C4B2F843C7B2002600E0D4
:1014B00001262546280205B2E81905B216B12846CC
:1014C000BDE8F081684200B2FAE700001FB50020D5
:1014D0000090019002900390012000900020019064
:1014E0000290022003906946014800F0A1FA1FBD56
:1014F000000C01401FB50020009001900290039065
:101500000120009001900020029002200390694683
:10151000014800F08DFA1FBD000C014010B500F02D
:1015200039F8FFF77DFF10BD10B5FFF7E3FF00228C
:1015300001210E4800F014FC022003F049FE0122B4
:1015400011460A4800F00CFCFFF7C0FF0C2003F026
:101550003FFE0121054800F0FBFB08B1012400E03B
:101560000024322003F034FE204610BD000C014060
:1015700070B50026012508E0FFF7D6FF0446E0011C
:1015800040EA6600C6B2681CC5B2082DF4DD3046DC
:1015900070BD000010B5FFF7ADFF00220121084823
:1015A00000F0DEFB40F2EE2003F012FE01221146B5
:1015B000034800F0D5FB0F2003F00AFE10BD000029
:1015C000000C014010B5FFF7E5FFFFF729FFCC2025
:1015D00000F004F8442000F001F810BD70B5044696
:1015E000FFF788FF012526E004F00106641086B1AC
:1015F00000220121114800F0B3FB022003F0E8FDB6
:10160000012211460D4800F0ABFB3C2003F0E0FD49
:101610000FE000220121094800F0A2FB3C2003F06A
:10162000D7FD01221146054800F09AFB022003F085
:10163000CFFD681CC5B2082DD6DD70BD000C014081
:101640007047704738B5024600230020009000BF65
:1016500092F82400012801D1022038BD012082F82F
:10166000240000BF4868072812D21068406B0C792C
:10167000641E04EB84051F24AC40A0430D796D1E4D
:1016800005EB85050C68AC4020431468606327E0D7
:1016900048680D2812D21068006B0C79E41F04EB27
:1016A00084051F24AC40A0430D79ED1F05EB850593
:1016B0000C68AC4020431468206311E01068C06AD5
:1016C0000C790D3C04EB84051F24AC40A0430D793C
:1016D0000D3D05EB85050C68AC4020431468E062C5
:1016E00008680A2812D31068C0680C780A3C04EB1A
:1016F00044050724AC40A0430D780A3D05EB4505A1
:101700008C68AC4020431468E0600FE0106800690A
:101710000C7804EB44050724AC40A0430D7805EB9E
:1017200045058C68AC402043146820610868102887
:1017300002D00868112827D1174C1068A0421ED18A
:101740001068806800F40000F0B91068806840F408
:1017500000001468A0600868102815D10F480068C0
:101760000F4CB0FBF4F000EB80004000009002E072
:101770000098401E009000980028F9D104E0906A7B
:1017800040F020009062012300BF002082F8240076
:1017900000BF184661E7000000240140100000204F
:1017A00040420F002DE9F0410446002700250026A5
:1017B000A84614B90120BDE8F081A06810B1207DD1
:1017C00000B100BFA06A30B90020E06284F82400B4
:1017D000204600F089F82046FFF76EFB0746A06A16
:1017E00000F01000002873D1002F71D1A06A20F4FE
:1017F000885040F00200A062E16960680843217BE4
:1018000040EA41000643A068B0F5807F02D0A0689E
:10181000012802D14FF4807000E000200543207DB4
:10182000012811D1207B38B9A069401E4FF4006116
:1018300041EA4030054307E0A06A40F02000A06282
:10184000E06A40F00100E0622068406820F46940EE
:101850002843216848602068806821490840304357
:1018600021688860A068B0F5807F02D0A068012858
:1018700002D14FF4807000E00020B0F5807F03D1EA
:10188000208A401E4FEA00582068C06A20F4700089
:1018900040EA08002168C862206880681149084051
:1018A000B04208D10020E062A06A20F0020040F0BF
:1018B0000100A06211E0A06A20F0020040F01000D8
:1018C000A062E06A40F00100E062012705E0FFE766
:1018D000A06A40F01000A062012738466BE70000C4
:1018E000FDF7E1FFFE0E1FFF10B586B00446002095
:1018F000029003900490059014492068884222D1F8
:1019000000BF1348806940F400701149886108469F
:10191000806900F40070019000BF00BF00BF08465E
:10192000806940F0080088610846806900F008007E
:10193000019000BF00BF022002900320039002A983
:10194000044800F075F806B010BD00000024014006
:1019500000100240000C014070B50446002594F8C8
:101960002100022803D00420A063012548E020685C
:10197000006820F00E00216808602068006820F0F0
:101980000100216808601F492068884201D10120B8
:1019900026E01C4914312068884201D110201FE044
:1019A000184928312068884201D1801518E015496E
:1019B0003C312068884201D1801411E01149503136
:1019C0002068884202D14FF4803009E00D4964312B
:1019D0002068884202D14FF4801001E04FF08070FF
:1019E000084908394860012084F8210000BF002020
:1019F00084F8200000BF606B10B12046616B8847FF
:101A0000284670BD0800024070B5044600F0AEF9EB
:101A100006462546681C10B104480078054400BFFE
:101A200000F0A4F9801BA842FAD370BD0C0000207E
:101A30002DE9F8470346002294466EE14FF0010875
:101A400008FA02F4D1F8008008EA0400A0427DD12F
:101A5000DFF8DCA2D1F80480A8EB0A09D0453AD01F
:101A600014DCB8F1030F50D009DCB8F1000F31D00D
:101A7000B8F1010F1CD0B8F1020F49D120E0B8F144
:101A8000110F18D0B8F1120F42D11EE0B9F5881F1E
:101A900025D006DCB9F5803F20D0B9F5801F37D1BD
:101AA0001AE0B9F5001F18D0B9F5041F30D117E0BE
:101AB000D1F80CC02DE0D1F80C8008F1040C28E01E
:101AC000D1F80C8008F1080C23E0D1F80C8008F163
:101AD0000C0C1EE000BF00BF00BF00BF00BF00BF76
:101AE000D1F80880B8F1000F02D14FF0040C0BE0E0
:101AF000D1F80880B8F1010F03D14FF0080C1C6138
:101B000002E04FF0080C5C6103E04FF0000C00E0D5
:101B100000BF00BFFF2801D8984601E003F1040888
:101B20004646FF2802D84FEA820803E0A2F10808DF
:101B30004FEA88084746D6F800804FF00F0909FAA7
:101B400007F928EA09080CFA07F900E088E048EAF2
:101B50000908C6F80080D1F8048008F08058B8F170
:101B6000805F7DD100BFDFF8CC81D8F8188048F0C5
:101B70000108DFF8C091C9F81880C846D8F8188065
:101B800008F00108CDF8008000BF00BF4FEAB93867
:101B90004FEA920958F829504FEA82784FEA1879AB
:101BA0004FF00F0808FA09F825EA0805DFF88881E0
:101BB000434502D14FF0000816E0DFF8808143452D
:101BC00002D14FF001080FE0DFF87481434502D1E4
:101BD0004FF0020808E0DFF86C81434502D14FF076
:101BE000030801E04FF004084FEA82794FEA1979BF
:101BF00008FA09F848EA0505DFF84C814FEA92092E
:101C000048F82950D1F8048008F48038B8F5803FAE
:101C10000AD1DFF83881D8F8008048EA0008DFF8F8
:101C20002C91C9F8008009E0DFF82081D8F8008005
:101C300028EA0008DFF81491C9F80080D1F8048080
:101C400008F40038B8F5003F10D1DFF8008108F142
:101C50000408D8F8008048EA0008DFF8F09000E0B7
:101C60005AE009F10409C9F800800DE0DFF8DC80D2
:101C700008F10408D8F8008028EA0008DFF8CC90C2
:101C800009F10409C9F80080D1F8048008F480182B
:101C9000B8F5801F0ED1DFF8B48008F10808D8F835
:101CA000008048EA0008DFF8A49009F10809C9F8A3
:101CB00000800DE0DFF8948008F10808D8F8008073
:101CC00028EA0008DFF8849009F10809C9F80080C3
:101CD000D1F8048008F40018B8F5001F0ED1DFF821
:101CE0006C8008F10C08D8F8008048EA0008DFF89A
:101CF0005C9009F10C09C9F800800DE0DFF84C8018
:101D000008F10C08D8F8008028EA0008DFF83C90B9
:101D100009F10C09C9F80080521CD1F8008028FA9A
:101D200002F8B8F1000F7FF489AEBDE8F887000033
:101D3000000011100010024000080140000C01409A
:101D4000001001400014014008000140000401405F
:101D5000024693680B400BB1012000E00020704761
:101D60000AB1016101E00B0403617047014800689A
:101D70007047000004000020034800680349097808
:101D80000844014908607047040000200C0000204E
:101D900010B50848006840F01000064908600320AC
:101DA00000F0A8F8002000F007F800F02BF8002061
:101DB00010BD00000020024070B504460E480078B7
:101DC0004FF47A71B1FBF0F00C490968B1FBF0F502
:101DD000284600F07FFF08B1012070BD102C07D20B
:101DE00000222146501E00F047F80548046001E03B
:101DF0000120F2E70020F0E70C0000201000002096
:101E00000800002008B500BF1148806940F00100BB
:101E10000F4988610846806900F00100009000BF0A
:101E200000BF00BF0846C06940F08050C861084646
:101E3000C06900F08050009000BF00BF00BF05499E
:101E4000486820F0E06040F00070486000BF08BDC6
:101E5000001002400000014001460846002809DB4E
:101E600000F01F0301229A4043099B0003F1E02385
:101E7000C3F8002100BF70472DE9F05F80460D4692
:101E80001646002702F00EFD074639462A4633461D
:101E900001F00700C0F1070ABAF1040F02D94FF0B0
:101EA000040A01E0C0F1070AD14600F1040ABAF1C0
:101EB000070F02D24FF0000A01E0A0F1030AD44656
:101EC0004FF0010A0AFA09FAAAF1010A0AEA020A1B
:101ED0000AFA0CFA4FF0010B0BFA0CFBABF1010BF9
:101EE0000BEA030B4AEA0B042146404602F0E2FCEF
:101EF000BDE8F09F00BF00F00702064B19684FF6DF
:101F0000FF031940044B0B4343EA0221014B1960C4
:101F100000BF70470CED00E00000FA050120014908
:101F20000862704700000E422DE9F04385B0064676
:101F30003BA30FCB01AC0FC43DA0006800904FF055
:101F40000008002500270024A146012E30D0022ED3
:101F500055D0102E5ED137484468006800F080707C
:101F600000B301A8C4F38341475C04F4803070B12E
:101F700030484068C0F340401DF8008004F48030D1
:101F800040B12D48B0FBF8F000FB07F502E02B480C
:101F900007FB00F52748406800F48000B0F5800F8B
:101FA00001D1A94603E068000321B0FBF1F932E05A
:101FB0002048046A04F44070B0F5807F05D104F035
:101FC000020010B14FF4004918E004F44070B0F57D
:101FD000007F07D11748406A00F0020010B149F6AF
:101FE00040490BE004F44070B0F5407F06D1114841
:101FF000006800F4003008B14FF224490BE000F013
:102000009BF90C494968C1F38131491C4900B0FB77
:10201000F1F900E000BF00BF484605B0BDE8F0831D
:1020200002030405060708090A0B0C0D0E0F101019
:10203000010200000010024000127A0000093D0079
:10204000F8B5044600260025207800F0010000289D
:102050006BD000274348C06900F0805070B900BFC2
:102060004048C06940F080503E49C8610846C06998
:1020700000F08050009000BF00BF01273A48006880
:1020800000F48070B0B93848006840F48070364978
:102090000860FFF76BFE064606E0FFF767FE801B51
:1020A000642801D90320F8BD2F48006800F480702F
:1020B0000028F2D02B48006A00F440752DB3A088A8
:1020C00000F44070A84220D02648006A20F44075F1
:1020D000012026490860002008602248056205F0BA
:1020E000010090B1FFF742FE064608E0FFF73EFE12
:1020F000801B41F28831884201D90320D3E7194877
:10210000006A00F002000028F0D01648006A20F4AF
:1021100040706168084313490862012F04D10846E2
:10212000C06920F08050C86100BF207800F0020034
:10213000022807D10B48406820F44040A1680843BA
:1021400008494860207800F01000102807D10548A1
:10215000406820F48000E16808430249486000209C
:10216000A1E700000010024000700040400442421D
:102170007047000070B504460D460CB9012070BDD3
:102180005A48006800F00700A8420ED2574800687D
:1021900020F007002843554908600846006800F011
:1021A0000700A84201D00120E9E7207800F00200F2
:1021B00002281DD1207800F00400042805D14C48E5
:1021C000406840F4E0604A494860207800F0080028
:1021D000082805D14648406840F4605044494860AA
:1021E0004348406820F0F000A16808434049486037
:1021F000207800F0010078B36068012806D13C48DF
:10220000006800F4003090B90120B8E76068022847
:1022100006D13748006800F0007040B90120AEE7F1
:102220003348006800F0020008B90120A7E73048F1
:10223000406820F00300616808432D494860FFF7BB
:1022400095FD064609E0FFF791FD801B41F28831BC
:10225000884202D9032092E707E02548406800F051
:102260000C006168B0EB810FEDD12048006800F0F0
:102270000700A8420ED91D48006820F00700284337
:102280001A4908600846006800F00700A84201D01B
:10229000012074E7207800F00400042807D11448D6
:1022A000406820F4E060E168084311494860207804
:1022B00000F00800082808D10D48406820F460505C
:1022C000216940EAC1000A49486000F045F8084920
:1022D0004968C1F30311074A515CC84006490860C8
:1022E00006480068FFF768FD002048E7002002402C
:1022F00000100240D0530008100000200800002009
:1023000001200149C864704700004242014800684A
:10231000704700001000002000B5FFF7F7FF0449E8
:102320004968C1F30221034A515CC84000BD000066
:1023300000100240E053000800B5FFF7E7FF044932
:102340004968C1F3C221034A515CC84000BD000086
:1023500000100240E0530008F0B585B00FF26C0C9D
:102360009CE8E01001A8A0E8E0101CA52D680095ED
:1023700000210022002300240020194D696801F08B
:102380000C05F5B1042D02D0082D19D101E0154836
:1023900019E001ADC1F38346AC5D01F4803555B160
:1023A0000F4D6D68C5F340451DF805200D4D654383
:1023B000B5FBF2F302E00C4D04FB05F3184602E016
:1023C00000BF084800BF00BF05B0F0BD0203040510
:1023D000060708090A0B0C0D0E0F10100102000071
:1023E0000010024000127A0000093D0010B50648B6
:1023F000806800F08000802804D1FFF7B9FE8020BB
:102400000149887210BD000000100240F8B5044672
:102410000CB90120F8BD207800F00100002878D028
:10242000F848406800F00C0004280CD0F5484068DB
:1024300000F00C00082811D1F248406800F4803008
:10244000B0F5803F0AD1EF48006800F40030002862
:102450005FD0606800285CD10120DBE700BF6068C6
:10246000B0F5803F06D1E748006840F48030E54988
:10247000086028E0606858B9E248006820F48030BD
:10248000E04908600846006820F4802008601AE0EF
:102490006068B0F5A02F0BD1DA48006840F48020C6
:1024A000D84908600846006840F4803008600AE0B7
:1024B000D448006820F48030D2490860084600689B
:1024C00020F48020086000BF606888B1FFF74EFCF0
:1024D000054606E0FFF74AFC401B642801D90320AB
:1024E00098E7C848006800F400300028F2D010E0F7
:1024F000FFF73CFC054606E0FFF738FC401B64286C
:1025000001D9032086E7BF48006800F400300028A6
:10251000F2D1207800F00200022857D1B948406873
:1025200000F00C0050B1B748406800F00C000828DB
:1025300018D1B448406800F4803098B9B1480068B8
:1025400000F0020020B12069012801D0012061E7DC
:10255000AC48006820F0F800616940EAC100A94970
:10256000086033E02069E8B10120A7490860FFF75F
:10257000FDFB054606E0FFF7F9FB401B022801D9E9
:10258000032047E79F48006800F002000028F2D0CF
:102590009C48006820F0F800616940EAC100994950
:1025A000086013E0002098490860FFF7DFFB05464C
:1025B00006E0FFF7DBFB401B022801D9032029E7D7
:1025C0009048006800F002000028F2D1207800F066
:1025D000080008282DD1A069B8B101208B490860F6
:1025E000FFF7C4FB054606E0FFF7C0FB401B0228CF
:1025F00001D903200EE78348406A00F0020000285A
:10260000F2D0012001F012FA13E000207F490860A7
:10261000FFF7ACFB054606E0FFF7A8FB401B0228CE
:1026200001D90320F6E67748406A00F0020000284E
:10263000F2D1207800F00400042873D100277148FB
:10264000C06900F0805070B900BF6E48C06940F0AA
:1026500080506C49C8610846C06900F08050009005
:1026600000BF00BF01276A48006800F48070B0B95D
:102670006748006840F4807065490860FFF776FBA2
:10268000054606E0FFF772FB401B642801D90320D2
:10269000C0E65F48006800F480700028F2D000BFF8
:1026A000E068012806D15748006A40F0010055490A
:1026B000086227E0E06858B95248006A20F001003B
:1026C000504908620846006A20F00400086219E0D8
:1026D000E06805280BD14B48006A40F004004949E6
:1026E00008620846006A40F0010008620AE04548B6
:1026F000006A20F00100434908620846006A20F0A1
:102700000400086200BFE068A0B1FFF72FFB054698
:1027100009E0FFF72BFB401B41F28831884202D9C8
:10272000032077E622E03748006A00F00200002824
:10273000EFD012E0FFF71AFB054608E0FFF716FBA3
:10274000401B41F28831884201D9032062E62D48BE
:10275000006A00F002000028F0D1012F05D12948BD
:10276000C06920F080502749C86100BFE069C8B344
:102770002448406800F00C00082860D0E069022876
:1027800048D1002020490866FFF7F0FA054606E028
:10279000FFF7ECFA401B022801D903203AE619485A
:1027A000006800F000700028F2D1206AB0F5803F88
:1027B00007D11448406820F40030A168084311494B
:1027C0004860D4E9080108430E49496821F47411AE
:1027D00008430C49486001200B490866FFF7C6FA18
:1027E000054607E03DE0FFF7C1FA401B022801D98A
:1027F00003200FE60348006800F000700028F2D0C4
:102800002FE00000001002400000424280044242DB
:1028100000700040002014490866FFF7A7FA05463B
:1028200006E0FFF7A3FA401B022801D90320F1E5D7
:102830000E48006800F000700028F2D111E0E06955
:10284000012800D1E6E50948466806F48031206A8F
:10285000814204D106F47011606A814201D00120E6
:10286000D8E50020D6E500000000424200100240FA
:102870002DE9F04188B0804620480078401C1F496F
:102880000870084600781E2834DB00200870FEF728
:10289000F3FD07463846FDF73AFE05464FF0834103
:1028A000FDF7F7FD04462046FDF73AFE05462A46A9
:1028B0000B4613A103A801F0E1FF03A913A001F047
:1028C000B5FF012251031348FFF74AFA012003A97B
:1028D000CDE9000141F2766300224FF44861029095
:1028E0001046FEF7F5FC00224FF400510948FFF7AF
:1028F00037FA00BF08B0BDE8F081000000000020FA
:1029000054454D3A252E34662027430025730D0A81
:1029100000000000000C0140704710B5044620681C
:10292000006800F00100E0B12068406800F001009C
:10293000B8B120684068C0F3800048B12046FFF776
:10294000EBFF6FF00400216848600420607404E02D
:102950002046FFF78DFF012060746FF001002168B1
:10296000486010BD014609B90120704700BF087CCE
:10297000012801D10220F8E70120087400BF0220DD
:1029800048740868006840F001000A68106001207F
:10299000487400BF0020087400BF00BFE5E70000D6
:1029A00070B5044600250CB9012070BD607C20B9CB
:1029B00000202074204600F05BF80220607420465E
:1029C00000F068F918B1042060740120EDE720469A
:1029D00001F04BF818B1042060740120E5E720688D
:1029E000406820F0070021684860A06828B11F48AF
:1029F000006820F001001D4908601C48001F0068A5
:102A000020F46070A16808431849091F08606068D5
:102A1000401C08B1656809E00120FFF785FA05460A
:102A20001DB9042060740120BFE76D1E2068806816
:102A300020F00F0040EA1540216888602068C068D7
:102A400065F30F002168C860204601F02BF818B12B
:102A5000042060740120A8E70021E1730121617363
:102A6000A1730120607400209FE70000306C0040DB
:102A700038B504460F49206888421AD1FFF74EFA4C
:102A800000BF0D48C06940F000600B49C8610846AE
:102A9000C06900F00060009000BF00BF012007493E
:102AA0000860002202210320FFF7E6F90320FFF768
:102AB000D3F938BD00280040001002403C044242D7
:102AC0002DE9F04704460D46904600260027B14602
:102AD00004B115B90120BDE8F08700BF207C0128B2
:102AE00001D10220F7E70120207400BF02206074AA
:102AF000B8F1000F06D1E978E17369786173A978BC
:102B0000A1730BE0E87800F0A5FFE073687800F0AF
:102B1000A1FF6073A87800F09DFFA073A27B617B8A
:102B2000E07B01F00BF82073207B2870204600F03A
:102B3000EBFF06464FF46160B6FBF0F9B9F1180FF0
:102B40002FD91820B9FBF0F000EB4000C000C0EB1B
:102B50004011C1EB0020A6EB00163146204601F0E3
:102B600046F838B10420607400BF0020207400BF14
:102B70000120B0E7204600F0BBFF0746781C80B17B
:102B8000B7420ED20B4807443946204601F018F8E8
:102B900038B10420607400BF0020207400BF012001
:102BA00099E70120607400BF0020207400BF00BFBF
:102BB00091E70000805101002DE9F04704460D46E1
:102BC00090460026002704B115B90120BDE8F08722
:102BD00000BF207C012801D10220F7E701202074EA
:102BE00000BF02206074B8F1000F0BD128784FF4B9
:102BF000616148436978C1EB011100EB8100A9785C
:102C0000461812E0287800F025FF4FF4616100FBC0
:102C100001F9687800F01EFFC0EB001009EB800995
:102C2000A87800F017FF09EB00063146204600F0B7
:102C3000DEFF38B10420607400BF0020207400BFA4
:102C40000120C3E72068406820F005002168486043
:102C5000204600F04DFF0746781C80B1B7420ED2E7
:102C60000B4807443946204600F0AAFF38B104203B
:102C7000607400BF0020207400BF0120A6E701207F
:102C8000607400BF0020207400BF00BF9EE70000FA
:102C90008051010070B5044600250CB9012070BDBB
:102CA0002068406820F0080021684860FFF75EF85F
:102CB000054607E0FFF75AF8401BB0F57A7F01D9C7
:102CC0000320ECE72068406800F008000028F1D0FD
:102CD0000020E4E770B504462546681EB0F1807F09
:102CE00001D301200FE0681E4FF0E02148610F2161
:102CF0004FF0FF3001F0DEFD00204FF0E021886151
:102D000007200861002070BD10B5024600BF92F890
:102D10003C00012801D1022010BD012082F83C00B6
:102D200000BF022082F83D00106843681068846884
:102D300023F070030868034324F0800448680443C8
:102D40001068436010688460012082F83D0000BF75
:102D5000002082F83C0000BF00BFDDE710B504464C
:102D60000CB9012010BD94F83D0028B9002084F86A
:102D70003C00204600F00CF8022084F83D00211DA4
:102D8000206801F01DF8012084F83D000020E9E7EB
:102D900008B50168B1F1804F0DD100BF0649C9697E
:102DA00041F00101044AD1611146C96901F00101F4
:102DB000009100BF00BF08BD001002400146022084
:102DC00081F83D000868806800F00702062A05D0F7
:102DD0000868006840F001000B681860012081F865
:102DE0003D00002070470146022081F83D0000BFF1
:102DF0000868006A41F21112104050B90868006A70
:102E00009210104028B90868006820F001000A6894
:102E1000106000BF012081F83D00002070472DE9BF
:102E2000F04104460D4600BF94F83C00012802D151
:102E30000220BDE8F081012084F83C0000BF0220A0
:102E400084F83D002068866826F0770626F47F46E1
:102E5000206886602868502833D00CDC202850D0A9
:102E600004DC00284BD0102851D149E0302849D04B
:102E700040284CD139E060282DD0702807D0B0F51B
:102E8000805F03D0B0F5005F41D10DE040E0D5E9AF
:102E900002136A68206800F0CDFF2068866846F05B
:102EA00077062068866033E0D5E902136A682068F7
:102EB00000F0C0FF2068806840F48040216888608E
:102EC00026E0EA686968206800F0C8FF50212068A1
:102ED00000F0BBFF1CE0EA686968206800F0D1FFE1
:102EE0006021206800F0B1FF12E0EA68696820689C
:102EF00000F0B4FF4021206800F0A7FF08E000BF09
:102F000000BF00BF2968206800F09FFF00E000BFFD
:102F100000BF012084F83D0000BF002084F83C0081
:102F200000BF00BF85E770472DE9F04704462068E1
:102F300005682068C668206847694FF00008C146E8
:102F400005F00F08B8F1000F0AD105F0200038B1E4
:102F500006F0200020B1204600F0D1FFBDE8F08748
:102F6000B8F1000F6DD007F0010018B906F49070A9
:102F7000002866D005F0010030B106F4807018B169
:102F8000E06B40F00100E06305F0040030B107F0B1
:102F9000010018B1E06B40F00200E06305F00200B0
:102FA00030B107F0010018B1E06B40F00400E063BD
:102FB00005F0080030B107F0010018B1E06B40F0F7
:102FC0000800E063E06B68B305F0200028B106F06C
:102FD000200010B1204600F092FF20684069C0F345
:102FE0008019E06B00F0080010B9B9F1000F22D091
:102FF000204600F064FF2068406900F04000B0B156
:103000002068406920F0400021684861606B50B141
:103010001748616B4863606BFEF79EFC10B1606BF4
:10302000416B88470CE02046FFF77DFF08E0204613
:10303000FFF779FF04E02046FFF775FF0020E0630B
:103040008CE705F0800030B106F0800018B1204612
:1030500001F078F882E705F0400030B106F040005A
:1030600018B1204600F03BFF78E700BF76E700008C
:10307000AB3E000810B504460CB9012010BDA06994
:1030800000B100E000BF94F8390028B9002084F8AE
:103090003800204600F028F8242084F83900206801
:1030A000C06820F400502168C860204600F07AFF14
:1030B0002068006920F49040216808612068406918
:1030C00020F02A00216848612068C06840F4005060
:1030D0002168C8600020E063202084F8390084F86B
:1030E0003A000020CAE7000010B586B00446002070
:1030F00002900390049005903749206888422FD1B0
:1031000000BF3648806940F48040344988610846F1
:10311000806900F48040019000BF00BF00BF0846F6
:10312000806940F0040088610846806900F004006E
:10313000019000BF00BF48150290022003900320B9
:10314000059002A92648FEF773FC4FF480600290B8
:1031500000200390049002A92148FEF769FC39E0A1
:1031600020492068884235D100BF1C48C06940F41E
:1031700000301A49C8610846C06900F40030019067
:1031800000BF00BF00BF0846806940F004008861AE
:103190000846806900F00400019000BF00BF0420D1
:1031A0000290022003900320059002A90C48FEF72C
:1031B0003FFC0820029000200390049002A90848D8
:1031C000FEF736FC002201212620FEF755FE2620C0
:1031D000FEF742FE06B010BD00380140001002406C
:1031E000000801400044004010B5034693F83A003F
:1031F00020282FD101B10AB9012010BD00BF93F8DA
:103200003800012801D10220F7E7012083F83800B7
:1032100000BF99629A85DA850020D863222083F85E
:103220003A0000BF002083F8380000BF1868C0686B
:1032300040F480701C68E0601868406940F001004C
:103240001C6860611868C06840F020001C68E0607D
:103250000020D2E70220D0E710B5044603492068D9
:10326000884201D100F0EEF910BD0000004400409A
:103270002DE9F84304460D4616461F464FF0000957
:1032800094F8390020285CD105B116B90120BDE8B9
:10329000F88300BF94F83800012801D10220F6E736
:1032A000012084F8380000BF0020E063212084F86A
:1032B0003900FEF75BFD8146A684E6842BE0E08CB6
:1032C000401EE084A068B0F5805F16D14B46002216
:1032D00080212046009700F069FF08B10320D6E75F
:1032E000A846B8F80000C0F30800216848602069CB
:1032F00008B9AD1C0FE06D1C0DE04B46002280218B
:103300002046009700F052FF08B10320BFE715F8F0
:10331000010B21684860E08C0028D0D14B46002288
:1033200040212046009700F041FF08B10320AEE79E
:10333000202084F8390000BF002084F8380000BF46
:10334000A5E70220A3E710B5034693F8390020282B
:1033500023D101B10AB9012010BD00BF93F8380094
:10336000012801D10220F7E7012083F8380000BFCF
:1033700019629A84DA840020D863212083F8390006
:1033800000BF002083F8380000BF1868C06840F014
:1033900080001C68E0600020DEE70220DCE7704768
:1033A00000BFFEE72DE9FE43002400254FF00A0888
:1033B000E2E00A2D7ED2DFE805F0050B3D414D59D4
:1033C0005D65949E00F02AF9FEF712F80446C0E00D
:1033D000002600BFFDF714FE0446FCB16948D0F892
:1033E000C800212803D86748D0F8C80030B941F296
:1033F0008830FEF709FB701CC6B20FE06148D0F8B8
:10340000C80021280AD85F48D0F8C80030B15D480C
:10341000D0F8C8105CA001F009FA02E00CB1042E4B
:10342000D8DB00BF2CB15748D0F8C800212800D9FC
:1034300000248EE0FDF79CFD04468AE0FDF7B0FD18
:1034400004465048B830D0E90063324651A001F03C
:10345000EDF97EE0FDF7BCFD04464A48C030D0E9F6
:10346000006332464EA001F0E1F972E0FDF726FE5E
:1034700004466EE000224FF448611046FDF7D8FD87
:10348000044666E0012049A1062241F28153CDE9BC
:103490000021029000224FF448611046FDF718FF0A
:1034A0000446012044A1052241F27C53CDE90021CC
:1034B000029000E04CE000224FF448611046FDF716
:1034C00007FF044601203DA1CDE9000141F27663EA
:1034D00000224FF4486102901046FDF7F9FE0446C1
:1034E00037E03C210020FDF745FF0446214635A08A
:1034F00001F09CF92DE001202CA1062241F281531C
:10350000CDE90021029000224FF448611046FDF7FA
:10351000DFFE0446012028A1052241F27C53CDE9BB
:103520000021029000224FF448611046FDF7D0FEC2
:103530000446012026A1CDE9000141F27663002274
:103540004FF4486102901046FDF7C2FE044600E0C9
:1035500000BF00BF5CB9A8F1010000F0FF08B8F19E
:10356000000F09D129461DA001F060F905E0681C93
:10357000C5B2092D00DD00E01BE700BF2046BDE815
:10358000FE83000030010020727373693A25640ADB
:1035900000000000494D45493A256C6C750A000051
:1035A000494D53493A256C6C750A00004133303956
:1035B0004338324645360000310000006A756964C0
:1035C0006C000000726573A3BA25640A0000000055
:1035D00073636E7532303230000000004661696CF2
:1035E00020617420737465702025640A0000000057
:1035F00010B5012220210848FEF7B2FB4FF47A7083
:10360000FEF702FA002220210348FEF7A9FB4FF43F
:103610007A70FEF7F9F910BD000C014010B50020DA
:103620000649488281F8D4000421044880F8A21099
:10363000012201460248FFF7D7FD10BD30010020EE
:10364000EC00002010B5564890F8D40050BB544808
:103650000178428A143081541438408A7D2805DA72
:103660004F48408A401C4E49488202E000204C49A5
:1036700048824B48408A012813DD4948408A401E51
:1036800047491431085C0A280BD14548408A801EFE
:10369000085C0D287DD10120143981F8D400002068
:1036A000488276E03E480178B0F892201430815488
:1036B0001438B0F8920060B9394800780A2808D167
:1036C000374800780D2804D100203549A1F8920030
:1036D00027E03348B0F892007D2807DA3048B0F888
:1036E0009200401C2E49A1F892001AE02C48B0F834
:1036F00092007D2815DB2A48B0F89200401E284928
:10370000A1F892000846B0F892101430FDF71CFCA6
:103710007E2123481430FCF72EFD00202049A1F81B
:1037200092001F48B0F89200012832DD1C48B0F822
:103730009200401E1A491431085C0A2829D1184801
:10374000B0F89200801E085C0D2822D11448B0F811
:103750009200022819DD1248B0F89200401E143978
:10376000A1F89200002081F8D4000846B0F8921029
:103770001430FDF7E9FB7E2109481430FCF7FBFC0F
:1037800000200749A1F8920003E000200449A1F8B5
:103790009200012202490348FFF726FD10BD0000F8
:1037A00030010020EC000020034981F8A200002134
:1037B000014A82F8A0107047300100200EB50020A9
:1037C00000900190029012481249086000211148AF
:1037D0008160017301754FF46021C16100200D49C2
:1037E000486001210B480161FDF7DCFF08B1FDF7DE
:1037F00028FF0920009001200190002002906946D6
:103800000448FDF71FFF08B1FDF71BFF0EBD0000C8
:10381000002401402800002000B585B00020019060
:1038200002900390049000BF2648806940F0100089
:10383000244988610846806900F01000009000BFAC
:1038400000BF00BF0846806940F02000886108463C
:10385000806900F02000009000BF00BF00BF084654
:10386000806940F0040088610846806900F0040027
:10387000009000BF00BF00BF0846806940F008000C
:1038800088610846806900F00800009000BF00BF12
:10389000002221210C48FEF763FA01224FF4405127
:1038A0000948FEF75DFA43F22100019001200290E1
:1038B000002003900220049001A90348FEF7B8F805
:1038C00005B000BD00100240000C01401CB50020F6
:1038D000019000901848194908604FF0FF30486087
:1038E0004FF4807115488160FFF75AF808B1FDF771
:1038F000A8FE00208DF804008DF805008DF8060064
:10390000012201A90D48FFF757F908B1FDF799FE0B
:1039100001208DF800008DF801008DF802000020D4
:103920008DF80300012269460448FFF7C9F808B181
:10393000FDF787FE1CBD0000002800405800002055
:1039400000B587B000200390049005900690019088
:1039500002904FF0804014490860472048600021E1
:10396000114881604FF6FF71C16000210161802123
:103970008161FFF7F3F908B1FDF763FE4FF4805062
:10398000039003A90848FFF74AFA08B1FDF759FE6A
:1039900000200190029001A90348FFF7B5F908B192
:1039A000FDF74FFE07B000BD6C00002010B50B48BE
:1039B0000B4908604FF416504860002108488160A8
:1039C000C16001610C21416100218161C161FFF78A
:1039D00051FB08B1FDF735FE10BD00000038014075
:1039E000AC00002010B50B480B4908604FF416508E
:1039F0004860002108488160C16001610C2141617B
:103A000000218161C161FFF735FB08B1FDF719FEA7
:103A100010BD000000440040EC00002000BFFEE7A5
:103A200010B5FEF7E3FC10BD7047000008B508496B
:103A30000968C9084FF47A72B1FBF2F14143009171
:103A400000BF00BF00994A1E00920029F9D108BDAD
:103A500010000020014600BF080900EB8000420072
:103A600001F00F001044C0B2704770B50446002545
:103A7000FEF77CF9054607E0FEF778F9401BB0F544
:103A80007A7F01D9032070BD2068406800F02000D3
:103A90000028F1D02068406840F01000216848609C
:103AA0000020F0E770B5044600252068406820F04B
:103AB000100021684860FEF759F9054607E0FEF757
:103AC00055F9401BB0F57A7F01D9032070BD2068FD
:103AD000406800F020000028F1D00020F6E7000048
:103AE00010B50248FEF719FF10BD00005800002075
:103AF0000146002200230868006A82B20868406A12
:103B000083B243EA0240704730B5014600220023E9
:103B1000002400200D68AD69AAB20D68ED69ACB251
:103B20000D68AD69ABB29A4205D00D68ED6963F3DB
:103B30001F45284601E044EA024030BDF0B5044686
:103B40000B460021002504F5FA61032B1BD2C3EBC1
:103B5000C30000EB03100926B0FBF6F01044001D73
:103B60004618481E06EB90066427B0FBF7F0361A9D
:103B7000481EBF00B0FBF7F030440726B0FBF6F755
:103B800006FB17051AE0C3EBC30000EB0310092680
:103B9000B0FBF6F01044001D084400EB91006426D1
:103BA000B1FBF6F6801B4FF4C876B1FBF6F6304455
:103BB000801E0726B0FBF6F706FB1705E8B2F0BD3E
:103BC00070B504460D4600262046FFF74EFF08B1AB
:103BD00001260AE0280C21680862A8B22168486220
:103BE0002046FFF75FFF00B10126304670BD70B57B
:103BF00004460D4600262046FFF737FF08B1012690
:103C00000AE0280C21688861A8B22168C8612046B2
:103C1000FFF748FF00B10126304670BD7047000035
:103C20002DE9F04705460F4690464FF0000928461B
:103C3000FCF7ACFA86B20421224880F8A2100024D6
:103C400018E010211F48801CFCF795FA05EB0411C1
:103C500010221C48801CFCF775FA10221949891C97
:103C60001948FFF770FB6420FDF7CEFEA6F11000A7
:103C700086B2641C102EE4DC10211248801CFCF774
:103C80007AFA05EB041132460E48801CFCF75AFA0A
:103C900032460C49891C0C48FFF755FB60B90948AE
:103CA00080F8A07080F8A180FEF760F80549C1F89F
:103CB00094004FF0010901E04FF000094846BDE8CB
:103CC000F087000030010020EC00002010B5FEF766
:103CD00053F810BD00B593B0282109A8FCF74BFAA2
:103CE000142104A8FCF747FA0020009001900290EC
:103CF0000390052009904FF480300A9000200B902B
:103D000001200C900D9002201090C10311914FF4EE
:103D1000E011129109A8FEF779FB08B1FDF791FCBB
:103D20000F20049002200590002006904FF4806040
:103D3000079000200890022104A8FEF71BFA08B1A2
:103D4000FDF77FFC032000904FF480700190C001CC
:103D500002906846FEF774F908B1FDF772FCFEF7B1
:103D6000CFFA13B000BD00001148006840F0010018
:103D70000F490860084640680E4908400C494860F1
:103D8000084600680C490840094908600846006870
:103D900020F4802008600846406820F4FE00486057
:103DA0004FF41F008860C803044908607047000092
:103DB000001002400000FFF8FFFFF6FE08ED00E0F3
:103DC00010B50268184B984208D0B0F1804F05D06A
:103DD000164B984202D0164B984203D122F0700243
:103DE0004B681A43104B984208D0B0F1804F05D071
:103DF0000E4B984202D00E4B984203D122F44072EF
:103E0000CB681A4322F080034C6943EA0402026043
:103E10008B68C3620B688362034B984201D10B69C4
:103E200003630123436110BD002C014000040040E6
:103E30000008004030B50C46816821F47F4142EA19
:103E4000032525432943816030BD0A46816821F05E
:103E5000700142F0070319438160704730B50B468B
:103E60001446026A056A25F001050562816921F0A0
:103E7000F00141EA041122F00A021A438161026250
:103E800030BD30B50B461446056A25F010050562B5
:103E90008169026A21F4704141EA043122F0A002F2
:103EA00042EA03128161026230BD70B505466C6A58
:103EB0000020E085E0842046FFF735F870BD0168FA
:103EC000C96821F490710268D1600168496921F0E4
:103ED000010102685161202180F83A10704710B545
:103EE00004462068C06820F040002168C860202097
:103EF00084F839002046FFF752FA002010BD70B553
:103F0000044694F83A0022284AD1A068B0F5805FB0
:103F100013D1A56A206940B920684068C0F3080041
:103F20002880A06A801CA06219E020684068C0B2A6
:103F30002880A06A401CA06211E0206938B920687E
:103F40004068C1B2A26A501CA062117007E02068EC
:103F5000406800F07F01A26A501CA0621170E08DE1
:103F6000401E80B2E085C8B92068C06820F02000FB
:103F70002168C8602068C06820F480702168C8602B
:103F80002068406920F0010021684861202084F801
:103F90003A002046FFF760F9002070BD0020FCE7E2
:103FA0000220FAE770B504462168096921F44051FE
:103FB000E2681143226811612269A16811436269B4
:103FC00041EA02052168C96841F20C629143294324
:103FD0002268D1602168496921F44071A2691143C6
:103FE00022685161564A2168914254D1FEF7A4F9E2
:103FF00000EBC00101EB001162689200B1FBF2F12D
:1040000000EBC00202EB001263689B00B2FBF3F20C
:104010006423B2FBF3F202EBC20303EB0212A1EB47
:104020008201322202EB01116422B1FBF2F101F0B4
:10403000F00100EBC00202EB001263689B00B2FBD0
:10404000F3F26423B2FBF3F201EB021200EBC001C6
:1040500001EB001163689B00B1FBF3F100EBC003BF
:1040600003EB00136668B600B3FBF6F36426B3FBFC
:10407000F6F303EBC30606EB0313A1EB8301322334
:1040800003EB01116423B1FBF3F101F00F011144C3
:104090002268916053E0FEF73FF900EBC00101EBAD
:1040A000001162689200B1FBF2F100EBC00202EB7A
:1040B000001263689B00B2FBF3F26423B2FBF3F2DD
:1040C00002EBC20303EB0212A1EB8201322202EBEC
:1040D00001116422B1FBF2F101F0F00100EBC0022A
:1040E00002EB001263689B00B2FBF3F26423B2FBA5
:1040F000F3F201EB021200EBC00101EB0011636867
:104100009B00B1FBF3F100EBC00303EB0013666807
:10411000B600B3FBF6F36426B3FBF6F303EBC3067A
:1041200006EB0313A1EB8301322303EB011164239C
:10413000B1FBF3F101F00F0111442268916070BDF1
:1041400000380140014691F8390021282CD18868B7
:10415000B0F5805F0FD10A6A1088C0F308000B68C1
:104160005860086918B9086A801C086209E0086A82
:10417000401C086205E00B6A581C086218780B683E
:104180005860C88C401E80B2C88458B90868C0689E
:1041900020F080000B68D8600868C06840F04000DC
:1041A0000B68D860002070470220FCE72DE9F04141
:1041B00004460D4617469846069E21E0701CF8B14D
:1041C0002EB1FDF7D3FDA0EB0800B04218D920684E
:1041D000C06820F4D0702168C8602068406920F071
:1041E000010021684861202084F8390084F83A00F1
:1041F00000BF002084F8380000BF0320BDE8F08134
:10420000206800682840A84201D1012000E0002079
:10421000B842D3D00020F1E710B50248FEF784FE83
:1042200010BD0000EC00002000BFFEE770B50446A2
:104230000D4605221AA12046FBF7AFFF88B91A48A0
:10424000007870B90120194981F8D40001F1CC033C
:104250001A1F17A1601DFBF7AFFF0120124908705C
:104260001CE0022214A12046FBF797FF50B90E482C
:104270000078012806D10620FFF796FA00200A49A7
:1042800008700BE006220DA12046FBF786FF28B937
:104290000520FFF789FA00200349087070BD00006F
:1042A0002B4353513A00000014000020300100203D
:1042B00025752C25750000004F4B00004552524FCC
:1042C0005200000070B504460D460A2219A120468E
:1042D000FBF763FF28B10A2219A12046FBF75DFF17
:1042E00048B91A48007830B90120194981F8D4003A
:1042F000164908701CE0022216A12046FBF74DFF6C
:1043000050B912480078012806D10620FFF74CFA70
:1043100000200E4908700BE00B220FA12046FBF78E
:104320003CFF28B90520FFF73FFA00200749087035
:1043300070BD00002B43455245473A302C310000F8
:104340002B43455245473A302C35000015000020DC
:10435000300100204F4B00002B434D452045525269
:104360004F523A0070B504460D46062219A1204668
:10437000FBF713FF80B91948007868B90120184984
:1043800081F8D40001F1B80216A1A01DFBF714FFBB
:104390000120124908701CE0022214A12046FBF7FC
:1043A000FCFE50B90D480078012806D10620FFF721
:1043B000FBF90020094908700BE00B220CA12046F4
:1043C000FBF7EBFE28B90520FFF7EEF900200349C3
:1043D000087070BD2B4347534E3A00001600002072
:1043E00030010020256C6C75000000004F4B000070
:1043F0002B434D45204552524F523A0070B504466A
:104400000D460B2216A12046FBF7C7FE30B905204A
:10441000FFF7CAF900201549087020E0134800781A
:1044200068B90120124981F8D40001F1C00211A13C
:104430002046FBF7C1FE01200C4908700FE0022264
:104440000EA12046FBF7A9FE48B9084800780128CC
:1044500005D10620FFF7A8F900200449087070BDB7
:104460002B434D45204552524F523A001700002031
:1044700030010020256C6C75000000004F4B0000DF
:1044800070B505460C46012C12D1022209A128461E
:10449000FBF783FE18B90620FFF786F908E006222D
:1044A00005A12846FBF779FE10B90520FFF77CF936
:1044B00070BD00004F4B00004552524F52000000AB
:1044C00070B504460D46214618A000F0AFF9184813
:1044D000007860B9022217A12046FBF75EFE30B9D2
:1044E0000120154981F8D400114908701CE01048DA
:1044F000007801280CD10A2210A12046FBF74DFEBE
:1045000030B900200A4908700620FFF74DF90BE08A
:1045100006220DA12046FBF740FE28B900200449E1
:1045200008700520FFF740F970BD000025730A00F0
:104530001A0000204F4B0000300100202B4D495045
:104540004C434C4F534500004552524F520000001F
:1045500070B505460C46012C29D10C2214A1284621
:10456000FBF71BFE48B91648007830B90120154901
:1045700081F8D4001249087019E011480078012828
:104580000CD1022210A12846FBF707FE30B9062005
:10459000FFF70AF900200A49087008E006220BA17B
:1045A0002846FBF7FAFD10B90520FFF7FDF870BDAE
:1045B0002B4D49504C4352454154453A00000000B0
:1045C00018000020300100204F4B00004552524F90
:1045D0005200000070B504460D46022209A1204693
:1045E000FBF7DBFD18B90620FFF7DEF808E006222E
:1045F00005A12046FBF7D1FD10B90520FFF7D4F83F
:1046000070BD00004F4B00004552524F5200000059
:1046100070B504460D46022209A12046FBF7BDFDF8
:1046200018B90620FFF7C0F808E0062205A12046C9
:10463000FBF7B3FD10B90520FFF7B6F870BD000019
:104640004F4B00004552524F5200000070B50446D7
:104650000D46022209A12046FBF79FFD18B906204E
:10466000FFF7A2F808E0062205A12046FBF795FD1A
:1046700010B90520FFF798F870BD00004F4B0000FF
:104680004552524F5200000070B504460D4629486D
:10469000007860B9022228A12046FBF77EFD30B9E0
:1046A0000120264981F8D4002249087040E02148C1
:1046B000007801280DD1092221A12046FBF76DFDCC
:1046C00038B901201D4981F8D40002201949087029
:1046D0002EE01848007802280DD10C221BA120469C
:1046E000FBF75BFD38B90120144981F8D4000320A1
:1046F000104908701CE00F48007803280CD10D22E7
:1047000016A12046FBF749FD30B900200949087081
:104710000620FFF749F80BE0062214A12046FBF71C
:104720003CFD28B90020034908700520FFF73CF83C
:1047300070BD0000190000204F4B00003001002028
:104740002B4D49504C4F50454E0000002B4D4950C9
:104750004C4F425345525645000000002B4D4950E6
:104760004C444953434F5645520000004552524F66
:104770005200000070B504460D46022209A12046F1
:10478000FBF70BFD18B90620FFF70EF808E006222C
:1047900005A12046FBF701FD10B90520FFF704F83D
:1047A00070BD00004F4B00004552524F52000000B8
:1047B00070B504460025FDF7D9FA064612E0FDF76C
:1047C000D5FA801BA04204D8084890F8A20005281A
:1047D00001D1002507E0054890F8A200062801D184
:1047E000012500E0EBE700BF284670BD3001002046
:1047F00070B504460D46022209A12046FBF7CDFC08
:1048000018B90620FEF7D0FF08E0042205A12046D3
:10481000FBF7C3FC10B90520FEF7C6FF70BD000012
:104820004F4B00002B434D45000000000FB4054BDB
:1048300010B503A9044A029800F022F910BC5DF8F3
:1048400014FB0000FD5100081C0000200FB41CB533
:104850000246002007AC00290BD0491ECDE90021FB
:10486000054B6A462146069800F00AF9009A002195
:1048700011701CBC5DF814FBAF5100080FB4084B5D
:1048800010B504A902AA039800F0FAF8044602A998
:10489000002000F097FC204610BC5DF814FB0000DF
:1048A000C551000802480068C0F3022070470000AC
:1048B0000CED00E010B5002804DB0A07130E054AD2
:1048C000135406E00A07140E034A00F00F031B1FDF
:1048D000D45410BD00E400E018ED00E002E008C888
:1048E000121F08C1002AFAD170477047002001E06A
:1048F00001C1121F002AFBD1704700002DE9FF5FA4
:1049000082B00021DDE90430020DDDF840B0034340
:1049100018D044F61050A2F2FF32424315141198F9
:1049200001281FD0A5EB0B00401C5FEA000A4FF0E6
:1049300000064E4FDFF83891B046504615D5CAF103
:10494000000413E0119801244AA3012801D16FEA61
:104950000B010298119AC0E90031C0E9024206B089
:10496000BDE8F09FCBF10000DFE704460021404A9C
:10497000491842EB0450CDE9001012E0E00707D0DF
:1049800032463B4640464946FBF744FF804689464F
:1049900032463B4610461946FBF73CFF06460F469B
:1049A0006410002CEAD1DDE90401DDE90023BAF14D
:1049B000000F06DAFBF72EFF42464B46FBF72AFFB5
:1049C00005E0FBF799FF42464B46FBF795FF04468F
:1049D0000E460022284BFCF717F803D84FF0FF30A3
:1049E000014607E00022254B20463146FBF76BFECF
:1049F000FBF7F1FF102409E0002C0ADB0A22002358
:104A0000FBF7B7FD039B30321A55641E50EA0102D2
:104A1000F2D1641C039AC4F111031444119A012ABF
:104A200003D0012208430DD10AE0084304D000203E
:104A30004FF0110B119072E7A3EB0B056D1E0DE00B
:104A40005B4504DD4FF0000205F1010504E003DAE7
:104A50004FF00002A5F10105002AECD0029811994F
:104A6000C0E90231C0E9004579E7000000001440C8
:104A70000000F03F300000000000F0430000E03F85
:104A80002DE9FF4F95B09B468946064600250FE26B
:104A9000252877D100242746F84A0121059400E013
:104AA000044316F8013F203B01FA03F01042F7D10E
:104AB00030782A2811D06FF02F033078A0F130021F
:104AC000092A16D8059A44F0020402EB820203EB8D
:104AD00042021044761C0590EFE759F8042B05922A
:104AE000002A03DA504244F40054059044F00204D2
:104AF000761C30782E2816D116F8010F44F00404E5
:104B00002A280DD06FF02F023078A0F13003092B46
:104B100009D807EB870302EB4303C718761CF3E7BA
:104B200059F8047B761C30786C280FD006DC4C28B2
:104B300017D068280DD06A2814D104E0742810D04A
:104B40007A280FD10DE044F400140AE044F48014F4
:104B500001E044F440147278824202D104F58014DA
:104B6000761C761C307866280BD013DC582877D05A
:104B700009DC002875D04528F6D04628F4D047280F
:104B80001AD19DE118E0632835D0642879D06528D2
:104B900012D195E1702873D008DC6728F1D069281C
:104BA0006FD06E280DD06F2806D1B5E073282CD0B9
:104BB000752875D0782874D05A46179990476D1C7F
:104BC00075E1C4F30250022809D003280DD0D9F8AA
:104BD000001004280DD00D6009F1040967E1D9F82F
:104BE0000010EA17C1E90052F6E7D9F800100D806D
:104BF000F2E70D70F0E719F8041B8DF800100020A3
:104C00008DF80100EA46012003E059F804AB4FF0AB
:104C1000FF3061074FF0000102D40DE008F10101FF
:104C20008846B9420FDA8045F8DB1AF808100029E7
:104C3000F4D108E008F1010188468142FADB1AF854
:104C400008100029F6D105985B46A0EB080721461D
:104C50003846179A00F094FA284400EB080507E05C
:104C60004DE029E10DE01AF8010B5A4617999047DB
:104C7000B8F10108F7D25B4621463846179A13E18E
:104C800042E00A220092C4F302524FF0000A022AC4
:104C900008D059F804CB032A4FEAEC710AD00DE092
:104CA00029E02AE009F1070121F00702F2E802C138
:104CB000914609E00FFA8CFC4FEAEC71042A03D10B
:104CC0004FFA8CFC4FEAEC71002907DA0A46002102
:104CD000DCF1000C61EB02012D2202E0220504D57B
:104CE0002B228DF80420012203E0E20701D02022CC
:104CF000F7E7904659E00A2102E010220DE010216A
:104D00004FF0000A00910BE010224FF0000A44F02F
:104D100004040827009203E008224FF0000A0092E2
:104D2000C4F30252022A05D059F804CB0021032A09
:104D300008D009E009F1070121F00702F2E802C1F9
:104D4000914605E01FFA8CFC042A01D10CF0FF0CFF
:104D50004FF00008220728D5702806D0009B83F06A
:104D6000100353EA0A0305D00EE040228DF8042018
:104D7000012208E05CEA010206D030228DF804200E
:104D80008DF8050002229046009B83F0080353EA49
:104D90000A030AD15CEA010201D1620705D530227B
:104DA0008DF804204FF001087F1E582804D034A04D
:104DB00003900EA802900DE036A0F9E75346604636
:104DC000009AFBF7D6FB84460398825C0298401E4B
:104DD000029002705CEA0100F0D1029806A9081A5C
:104DE00000F1200A600702D524F4803400E0012796
:104DF000574502DDA7EB0A0000E0002000EB0A01A6
:104E0000009005984144401A0590E00306D45B46A3
:104E10002146179A059800F0B3F90544002706E0EB
:104E200001A85A46C05D179990476D1C7F1C4745E5
:104E3000F6DBE0030CD55B462146179A059800F097
:104E40009FF9054404E030205A46179990476D1C9D
:104E50000099481E00900029F5DC08E002980299AC
:104E60005A460078491C0291179990476D1CBAF177
:104E70000001AAF1010AF1DC65E100000928010046
:104E800030313233343536373839616263646566C0
:104E90000000000030313233343536373839414282
:104EA000434445460000000000F058F90544761CD4
:104EB000307800287FF4ECAD19B02846BDE8F08FBB
:104EC000620700D4062709F1070222F0070CFCE86C
:104ED0000223E14603F000485FEA080C02D00FF21B
:104EE000702C0DE05FEA045C02D50FF2682C07E03D
:104EF0005FEAC47C02D00FF2602C01E0AFF2700CCC
:104F00004FF0FF3823F00043CDF850C065280CD097
:104F100006DC452809D046281DD047283DD13DE074
:104F2000662818D067287ED138E00021112F01DBD8
:104F3000112000E0781CCDE9000106A90EA8FFF7BA
:104F4000DDFCDDE90F010E9A03910021009207F1CB
:104F5000010A04914DE04FF000400097CDE90110A7
:104F600006A90EA8FFF7CAFCDDE90F0203920E9B0B
:104F700011990022DDF80CA00093049211B9791C5C
:104F800000EB010AB7EB0A0004D4C0F1FF3007F1CF
:104F9000010A0490AAEB0700019044E0012F00DA17
:104FA00001270021112F01DD112000E03846CDE955
:104FB000000106A90EA8FFF7A1FCDDE90F010E9A7A
:104FC0000391002104910092BA4621070CD4039961
:104FD000514500DA8A46BAF1010F05DD009AAAF1BF
:104FE0000101515C302908D0B84202DA10F1040FF7
:104FF00006DA0121CDE9011015E0AAF10101E9E786
:10500000002805DC049901440491AAEB000102E0A8
:10501000411C514500DD8A460499401A401C01900C
:105020004FF000400290200704D40198504501DB66
:10503000CDF8048000208DF84F0002980DF14F0745
:10504000B0F1004F25D02B200E9002984FF00208AF
:1050500000280CDA404202902D200E9007E00A2131
:105060000298FBF770FA3031029007F8011DB8F191
:105070000001A8F10108F2DC02980028EFD1791EA6
:105080000E980870307800F0200040F0450007F8D6
:10509000020D12A8C01B00F107081498007800B197
:1050A000012000EB0A01019801EBE07105984144F1
:1050B000401A401E0590E00306D45B462146179A2D
:1050C000059800F05DF805441498007818B15A4628
:1050D000179990476D1CE00324D55B462146179A2B
:1050E000059800F04DF805441CE00498002807DB03
:1050F000DDE90301884203DD0098405C179901E077
:10510000179930205A469047049805F10105401C34
:1051100004900198401E019004D12E205A46179900
:1051200090476D1CBAF10001AAF1010ADDDC05E02F
:1051300017F8010B5A46179990476D1CB8F10001FA
:10514000A8F10108F4DC5B462146179A0598ABE606
:105150002D0000002B000000200000002DE9F04190
:10516000044600251E461746880404D405E0394647
:105170002020B0476D1C641EF9D52846BDE8F0819B
:105180002DE9F041044600251E469046C80301D58E
:10519000302700E02027880404D505E04146384642
:1051A000B0476D1C641EF9D52846BDE8F0814A68F9
:1051B000002A06D00A68531C0B6010704868401E15
:1051C000486070470A68531C0B60107070470000FD
:1051D00070B5044600250848006845620648FDF79A
:1051E000EDFD03E004480068406A85B2A542F9DBA2
:1051F0000148FDF7F8FD70BD6C00002013B50C46AA
:105200004FF6FF73012269460248FEF731F8009815
:105210001CBD0000AC00002010B5002821D0114BAF
:105220000022001F196803E0814203D80A4649683A
:105230000029F9D152B11368841A9C4204D1006844
:1052400018441060104602E0506000E0186039B168
:1052500002680B1A934203D10B681A440260496832
:10526000416010BD20000020FCF792FDFEF732FDEA
:10527000FEF7D2FAFEF79AFBFEF7B4FBFEF79EFAB2
:10528000FEF75EFBFEF722FB19A0FFF7CFFA06E060
:105290001BA0FFF7CBFA4FF4FA60FCF7B5FBFCF765
:1052A0003DF90028F4D1FCF7E7F819A0FFF7BEFAA2
:1052B0001BA0FFF7BBFAFEF79BF9FEF773F840B9A6
:1052C00006E01BA0FFF7B2FA4FF47A70FCF79CFBE4
:1052D000F7E71CA0FFF7AAFA2048FDF743FB0022DE
:1052E0004FF400511E48FCF73BFD00BFFEE70000F5
:1052F000496E697420445331384232300D0A00003F
:1053000044533138423230204572726F720D0A00B8
:1053100044533138423230204F4B0D0A0000000018
:10532000496E6974204D35333130410A0000000068
:10533000496E6974204D3533313041206661696CA6
:105340000A000000496E6974204D35333130412028
:10535000737563636573730A0000000058000020D2
:10536000000C0140F0B50B30154D20F00701002472
:10537000144A0FE003688B420BD38B4205D95E1AA7
:1053800043184768C3E9006700E04368136002C040
:1053900004E0021D10680028ECD12046002802D14C
:1053A000286808B10020F0BD064A07481060074A87
:1053B000121A22F00702C0E9002401202860D7E772
:1053C00024000020200000200C02002008040020FF
:1053D00000000000000000000102030406070809A5
:1053E000000000000102030400000000F147000873
:1053F0002D420008C542000865430008FD4300082F
:1054000051450008814400084D46000889460008BF
:1054100075470008C144000811460008D54500083A
:10542000DDDDDDDDDCBBBBDDDDDDDDDDDDDDDDDDF1
:105430009888888888888888777777777788888831
:1054400085555556666666666666666666688888C9
:105450008333333222222222222222222228888DC2
:10546000805400080000002028000000DC480008EC
:10547000A854000828000020E0070000EC480008BD
:10548000000000000000000010000000010000000B
:105490000024F400000000000000000000000000F4
:0854A000000000000000000004
:04000005080000ED02
:00000001FF
